{
  "contractName": "TaskContract",
  "abi": [
    {
      "anonymous": false,
      "inputs": [
        {
          "indexed": false,
          "internalType": "address",
          "name": "receipent",
          "type": "address"
        },
        {
          "indexed": false,
          "internalType": "uint256",
          "name": "taskId",
          "type": "uint256"
        }
      ],
      "name": "AddTask",
      "type": "event"
    },
    {
      "anonymous": false,
      "inputs": [
        {
          "indexed": false,
          "internalType": "uint256",
          "name": "taskId",
          "type": "uint256"
        },
        {
          "indexed": false,
          "internalType": "bool",
          "name": "isDeleted",
          "type": "bool"
        }
      ],
      "name": "DeleteTask",
      "type": "event"
    },
    {
      "inputs": [
        {
          "internalType": "string",
          "name": "taskText",
          "type": "string"
        },
        {
          "internalType": "bool",
          "name": "isDeleted",
          "type": "bool"
        }
      ],
      "name": "addTask",
      "outputs": [],
      "stateMutability": "nonpayable",
      "type": "function"
    },
    {
      "inputs": [],
      "name": "getMyTask",
      "outputs": [
        {
          "components": [
            {
              "internalType": "uint256",
              "name": "id",
              "type": "uint256"
            },
            {
              "internalType": "string",
              "name": "taskText",
              "type": "string"
            },
            {
              "internalType": "bool",
              "name": "isDeleted",
              "type": "bool"
            }
          ],
          "internalType": "struct TaskContract.Task[]",
          "name": "",
          "type": "tuple[]"
        }
      ],
      "stateMutability": "view",
      "type": "function"
    },
    {
      "inputs": [
        {
          "internalType": "uint256",
          "name": "taskId",
          "type": "uint256"
        },
        {
          "internalType": "bool",
          "name": "isDeleted",
          "type": "bool"
        }
      ],
      "name": "deleteTask",
      "outputs": [],
      "stateMutability": "nonpayable",
      "type": "function"
    }
  ],
  "bytecode": "0x608060405234801561000f575f80fd5b50610de68061001d5f395ff3fe608060405234801561000f575f80fd5b506004361061003f575f3560e01c806320df458114610043578063aaba29071461005f578063e08e86b81461007b575b5f80fd5b61005d60048036038101906100589190610710565b610099565b005b6100796004803603810190610074919061079d565b6101b1565b005b61008361028b565b604051610090919061097b565b60405180910390f35b5f808054905090505f6040518060600160405280838152602001858152602001841515815250908060018154018082558091505060019003905f5260205f2090600302015f909190919091505f820151815f015560208201518160010190816101029190610b95565b506040820151816002015f6101000a81548160ff02191690831515021790555050503360015f8381526020019081526020015f205f6101000a81548173ffffffffffffffffffffffffffffffffffffffff021916908373ffffffffffffffffffffffffffffffffffffffff1602179055507f1f54e1ba1832d428fbd7e7792beaf62b1fc5a382c207ffd614209c1413e94fda33826040516101a4929190610cb2565b60405180910390a1505050565b3373ffffffffffffffffffffffffffffffffffffffff1660015f8481526020019081526020015f205f9054906101000a900473ffffffffffffffffffffffffffffffffffffffff1673ffffffffffffffffffffffffffffffffffffffff160361028757805f838154811061022857610227610cd9565b5b905f5260205f2090600302016002015f6101000a81548160ff0219169083151502179055507ff88a35c3d2016c409a46570b994a17b408dbc83c14a03f521512d50b85386d06828260405161027e929190610d15565b60405180910390a15b5050565b60605f808054905067ffffffffffffffff8111156102ac576102ab6105b7565b5b6040519080825280602002602001820160405280156102e557816020015b6102d261056d565b8152602001906001900390816102ca5790505b5090505f805b5f805490508110156104b5573373ffffffffffffffffffffffffffffffffffffffff1660015f8381526020019081526020015f205f9054906101000a900473ffffffffffffffffffffffffffffffffffffffff1673ffffffffffffffffffffffffffffffffffffffff1614801561039357505f15155f828154811061037357610372610cd9565b5b905f5260205f2090600302016002015f9054906101000a900460ff161515145b156104a2575f81815481106103ab576103aa610cd9565b5b905f5260205f2090600302016040518060600160405290815f82015481526020016001820180546103db906109c8565b80601f0160208091040260200160405190810160405280929190818152602001828054610407906109c8565b80156104525780601f1061042957610100808354040283529160200191610452565b820191905f5260205f20905b81548152906001019060200180831161043557829003601f168201915b50505050508152602001600282015f9054906101000a900460ff16151515158152505083838151811061048857610487610cd9565b5b6020026020010181905250818061049e90610d69565b9250505b80806104ad90610d69565b9150506102eb565b505f8167ffffffffffffffff8111156104d1576104d06105b7565b5b60405190808252806020026020018201604052801561050a57816020015b6104f761056d565b8152602001906001900390816104ef5790505b5090505f5b828110156105635783818151811061052a57610529610cd9565b5b602002602001015182828151811061054557610544610cd9565b5b6020026020010181905250808061055b90610d69565b91505061050f565b5080935050505090565b60405180606001604052805f8152602001606081526020015f151581525090565b5f604051905090565b5f80fd5b5f80fd5b5f80fd5b5f80fd5b5f601f19601f8301169050919050565b7f4e487b71000000000000000000000000000000000000000000000000000000005f52604160045260245ffd5b6105ed826105a7565b810181811067ffffffffffffffff8211171561060c5761060b6105b7565b5b80604052505050565b5f61061e61058e565b905061062a82826105e4565b919050565b5f67ffffffffffffffff821115610649576106486105b7565b5b610652826105a7565b9050602081019050919050565b828183375f83830152505050565b5f61067f61067a8461062f565b610615565b90508281526020810184848401111561069b5761069a6105a3565b5b6106a684828561065f565b509392505050565b5f82601f8301126106c2576106c161059f565b5b81356106d284826020860161066d565b91505092915050565b5f8115159050919050565b6106ef816106db565b81146106f9575f80fd5b50565b5f8135905061070a816106e6565b92915050565b5f806040838503121561072657610725610597565b5b5f83013567ffffffffffffffff8111156107435761074261059b565b5b61074f858286016106ae565b9250506020610760858286016106fc565b9150509250929050565b5f819050919050565b61077c8161076a565b8114610786575f80fd5b50565b5f8135905061079781610773565b92915050565b5f80604083850312156107b3576107b2610597565b5b5f6107c085828601610789565b92505060206107d1858286016106fc565b9150509250929050565b5f81519050919050565b5f82825260208201905092915050565b5f819050602082019050919050565b61080d8161076a565b82525050565b5f81519050919050565b5f82825260208201905092915050565b5f5b8381101561084a57808201518184015260208101905061082f565b5f8484015250505050565b5f61085f82610813565b610869818561081d565b935061087981856020860161082d565b610882816105a7565b840191505092915050565b610896816106db565b82525050565b5f606083015f8301516108b15f860182610804565b50602083015184820360208601526108c98282610855565b91505060408301516108de604086018261088d565b508091505092915050565b5f6108f4838361089c565b905092915050565b5f602082019050919050565b5f610912826107db565b61091c81856107e5565b93508360208202850161092e856107f5565b805f5b85811015610969578484038952815161094a85826108e9565b9450610955836108fc565b925060208a01995050600181019050610931565b50829750879550505050505092915050565b5f6020820190508181035f8301526109938184610908565b905092915050565b7f4e487b71000000000000000000000000000000000000000000000000000000005f52602260045260245ffd5b5f60028204905060018216806109df57607f821691505b6020821081036109f2576109f161099b565b5b50919050565b5f819050815f5260205f209050919050565b5f6020601f8301049050919050565b5f82821b905092915050565b5f60088302610a547fffffffffffffffffffffffffffffffffffffffffffffffffffffffffffffffff82610a19565b610a5e8683610a19565b95508019841693508086168417925050509392505050565b5f819050919050565b5f610a99610a94610a8f8461076a565b610a76565b61076a565b9050919050565b5f819050919050565b610ab283610a7f565b610ac6610abe82610aa0565b848454610a25565b825550505050565b5f90565b610ada610ace565b610ae5818484610aa9565b505050565b5b81811015610b0857610afd5f82610ad2565b600181019050610aeb565b5050565b601f821115610b4d57610b1e816109f8565b610b2784610a0a565b81016020851015610b36578190505b610b4a610b4285610a0a565b830182610aea565b50505b505050565b5f82821c905092915050565b5f610b6d5f1984600802610b52565b1980831691505092915050565b5f610b858383610b5e565b9150826002028217905092915050565b610b9e82610813565b67ffffffffffffffff811115610bb757610bb66105b7565b5b610bc182546109c8565b610bcc828285610b0c565b5f60209050601f831160018114610bfd575f8415610beb578287015190505b610bf58582610b7a565b865550610c5c565b601f198416610c0b866109f8565b5f5b82811015610c3257848901518255600182019150602085019450602081019050610c0d565b86831015610c4f5784890151610c4b601f891682610b5e565b8355505b6001600288020188555050505b505050505050565b5f73ffffffffffffffffffffffffffffffffffffffff82169050919050565b5f610c8d82610c64565b9050919050565b610c9d81610c83565b82525050565b610cac8161076a565b82525050565b5f604082019050610cc55f830185610c94565b610cd26020830184610ca3565b9392505050565b7f4e487b71000000000000000000000000000000000000000000000000000000005f52603260045260245ffd5b610d0f816106db565b82525050565b5f604082019050610d285f830185610ca3565b610d356020830184610d06565b9392505050565b7f4e487b71000000000000000000000000000000000000000000000000000000005f52601160045260245ffd5b5f610d738261076a565b91507fffffffffffffffffffffffffffffffffffffffffffffffffffffffffffffffff8203610da557610da4610d3c565b5b60018201905091905056fea264697066735822122057fd5150f0113819d7c33e31d684786e451d49c13d36397ed27cf34e613c6c6b64736f6c63430008140033",
  "immutableReferences": {},
  "source": "// SPDX-License-Identifier: MIT\r\npragma solidity ^0.8.15;\r\n\r\ncontract TaskContract {\r\n    event AddTask(address receipent, uint taskId);\r\n    event DeleteTask(uint taskId, bool isDeleted);\r\n\r\n    // More like creating interfaces...\r\n    struct Task {\r\n        uint id;\r\n        string taskText;\r\n        bool isDeleted;\r\n    }\r\n\r\n    // Create an array of type Task...\r\n    Task[] private tasks;\r\n\r\n    // Anytime a task is created, add that task to it's corresponding owner..\r\n    mapping(uint256 => address) taskToOwner;\r\n\r\n    function addTask(string memory taskText, bool isDeleted) external {\r\n        uint taskId = tasks.length;\r\n        tasks.push(Task(taskId, taskText, isDeleted));\r\n        taskToOwner[taskId] = msg.sender;\r\n        emit AddTask(msg.sender, taskId);\r\n    }\r\n\r\n    // Get user tasks that are not yet deleted\r\n    function getMyTask() external view returns (Task[] memory) {\r\n        Task[] memory temporary = new Task[](tasks.length);\r\n\r\n        uint counter = 0;\r\n\r\n        // Get tasks that are for the particular user, then set the delete status to false\r\n        for (uint i = 0; i < tasks.length; i++) {\r\n            if (taskToOwner[i] == msg.sender && tasks[i].isDeleted == false) {\r\n                // Push tasks into temporary tasks array...\r\n                temporary[counter] = tasks[i];\r\n                counter++;\r\n            }\r\n        }\r\n\r\n        // Create result varaible which is the size of the total tasks gotten\r\n        Task[] memory result = new Task[](counter);\r\n        \r\n        for (uint i = 0; i < counter; i++) {\r\n            result[i] = temporary[i];\r\n        }\r\n\r\n        // Return result...\r\n        return result;\r\n    }\r\n\r\n    function deleteTask(uint taskId, bool isDeleted) external {\r\n        if (taskToOwner[taskId] == msg.sender) {\r\n            tasks[taskId].isDeleted = isDeleted;\r\n            emit DeleteTask(taskId, isDeleted);\r\n        }\r\n    }\r\n}\r\n",
  "sourcePath": "C:\\Users\\HP 1030\\Documents\\GitHub\\cimfodd\\backend\\contracts\\TaskContract.sol",
  "compiler": {
    "name": "solc",
    "version": "0.8.20+commit.a1b79de6.Emscripten.clang"
  },
  "schemaVersion": "3.4.14",
  "updatedAt": "2023-07-28T11:59:49.971Z",
  "devdoc": {
    "kind": "dev",
    "methods": {},
    "version": 1
  },
  "userdoc": {
    "kind": "user",
    "methods": {},
    "version": 1
  }
}